:020000040000FA
:04000000830105284B
:0800080000008B0103179E01AB
:100010009F010313831670308F000F1D0D28870179
:1000200086018501831287018601861783160714CE
:100030008714812887103E2007143E2087143E2015
:10004000080087143E2007143E2087103E2007102A
:100050003E200800F001F015F10007080238F11FFA
:10006000023A87003E2007143E20F10D07103E2083
:10007000F00B2D28871407143E2007100800831664
:10008000212078302A2000302A28212078302A2088
:1000900040302A2867203F20AF302A2002302A2013
:1000A00010302A20B0302A20A1302A20C8302A203F
:1000B00081302A2000302A201A283F20B0307E04C8
:1000C0002A2002307F042A2010302A201A28FA0120
:1000D0003F20B0307A042A2000302A2010302A2015
:1000E0001A208430FB00452000302A20FB0B7428A6
:1000F0001A20FA0A7A08F83E031C6828FE01FF015C
:1001000008004A20FD01FD150D30F3000030F2001B
:10011000C120FF01FE0A5D20FD0B84288E28A2006D
:10012000220E0F39A82022080F39A8202208080023
:10013000FA00452000302A2000302A2000302A20F2
:1001400000302A2000302A2000302A207A081A287D
:10015000A100F000831203170D308F000E308D00C8
:1001600006308D07F00BB128031345200630A000A0
:1001700008212A2003178D0A0313A00BB828210891
:100180000800831203177308F7007208F600770857
:100190008F0076088D000821FA000317F60A03196C
:1001A000F70A77088F0076088D000821DB200317F7
:1001B000FA0BCE280800F301F2002030F2021221DF
:1001C0000D30F5006E30F400202183120317730800
:1001D0008F0072088D0003138316452083120630AA
:1001E000A000082183162A20831203178D0A031307
:1001F000A00BF1280630FF070800FA01FB01F0010F
:100200007016FA0B0129FB0B0129F00B01290800DC
:10021000831603178C170C140000000083120C08BF
:10022000031308000310F20DF30D7308720873082E
:10023000F5007208F4000310F20DF30D2021080000
:0E0240007508F3077408F2070318F30A0800A4
:101A00000D00480065006C006C006F002C00200089
:101A100057006F0072006C006400210000003E005F
:101A20005100490045003E000000000042007F00D8
:101A300040000000000062005100490049004600DB
:101A4000000022004900490049003600000018004B
:101A5000140012007F00100000002F004900490010
:101A60004900310000003C004A00490049003000B4
:101A700000000100710009000500030000003600AD
:101A800049004900490036000000060049004900AD
:101A900029001E0000007E001100110011007E00D0
:101AA00000007F00490049004900360000003E0068
:101AB000410041004100220000007F004100410040
:101AC00041003E0000007F004900490049004100FC
:101AD00000007F000900090009000100000000006B
:101AE00000000000000000000000000006005F0091
:101AF00006000000000007000300000007000300CC
:101B0000000024007E0024007E0024000000240049
:101B10002B006A00120000000000630013000800A0
:101B200064006300000036004900560020005000A9
:101B3000000000000700030000000000000000009B
:101B40003E004100000000000000000041003E0097
:101B500000000000000008003E001C003E000800DD
:101B60000000080008003E00080008000000000017
:101B7000E00060000000000000000800080008000D
:101B80000800080000000000600060000000000085
:101B900000002000100008000400020000003E00C9
:101BA0005100490045003E000000000042007F0057
:101BB000400000000000620051004900490046005A
:101BC00000002200490049004900360000001800CA
:101BD000140012007F00100000002F00490049008F
:101BE0004900310000003C004A0049004900300033
:101BF000000001007100090005000300000036002C
:101C0000490049004900360000000600490049002B
:101C100029001E00000000006C006C0000000000A5
:101C200000000000EC006C00000000000000080054
:101C300014002200410000000000240024002400C1
:101C400024002400000000004100220014000800CD
:101C500000000200010059000900060000003E00DB
:101C600041005D0055001E0000007E0011001100C3
:101C700011007E0000007F00490049004900360045
:101C800000003E00410041004100220000007F00B2
:101C90004100410041003E0000007F004900490032
:101CA0004900410000007F0009000900090001000F
:101CB00000003E004100490049007A0000007F001A
:101CC0000800080008007F000000000041007F00BD
:101CD00041000000000030004000400040003F0094
:101CE00000007F00080014002200410000007F0077
:101CF000400040004000400000007F00020004005F
:101D000002007F0000007F000200040008007F0046
:101D100000003E004100410041003E0000007F0005
:101D2000090009000900060000003E0041005100C2
:101D300021005E0000007F00090009001900660014
:101D4000000026004900490049003200000001005F
:101D500001007F000100010000003F004000400042
:101D600040003F0000001F002000400020001F0036
:101D700000003F0040003C0040003F0000006300C6
:101D80001400080014006300000007000800700041
:101D900008000700000071004900450043000000F2
:101DA000000000007F004100410000000000020030
:101DB0000400080010002000000000004100410065
:101DC0007F00000000000400020001000200040087
:101DD0008000800080008000800080000000000003
:101DE0000300070000000000000020005400540021
:101DF0005400780000007F00440044004400380094
:101E0000000038004400440044002800000038006E
:101E10004400440044007F00000038005400540097
:101E200054000800000008007E00090009000000BE
:101E300000001800A400A400A4007C0000007F00A3
:101E400004000400780000000000000000007D0095
:101E50004000000000004000800084007D00000081
:101E600000007F0010002800440000000000000077
:101E700000007F004000000000007C00040018000B
:101E80000400780000007C000400040078000000DA
:101E90000000380044004400440038000000FC000A
:101EA000440044004400380000003800440044006E
:101EB0004400FC00000044007800440004000800D6
:101EC00000000800540054005400200000000400EA
:101ED0003E0044002400000000003C0040002000C0
:101EE0007C00000000001C002000400020001C00BE
:101EF00000003C006000300060003C0000006C000E
:101F0000100010006C00000000009C00A0006000A9
:101F10003C00000000006400540054004C0000002D
:101F2000000008003E0041004100000000000000E9
:101F300000007700000000000000000041004100A8
:101F40003E00080000000200010002000100000045
:0C1F500000003C002600230026003C009E
:02400E00C430BC
:00000001FF
